{
  "contractName": "StudentAnees",
  "abi": [
    {
      "inputs": [
        {
          "internalType": "uint256",
          "name": "_age",
          "type": "uint256"
        },
        {
          "internalType": "string",
          "name": "_name",
          "type": "string"
        },
        {
          "internalType": "string",
          "name": "_fatherName",
          "type": "string"
        },
        {
          "internalType": "address",
          "name": "_userEthAddress",
          "type": "address"
        },
        {
          "internalType": "string",
          "name": "_mailingAddress",
          "type": "string"
        },
        {
          "internalType": "bool",
          "name": "_isGraduated",
          "type": "bool"
        }
      ],
      "stateMutability": "nonpayable",
      "type": "constructor"
    },
    {
      "inputs": [
        {
          "internalType": "uint256",
          "name": "_age",
          "type": "uint256"
        },
        {
          "internalType": "string",
          "name": "_name",
          "type": "string"
        },
        {
          "internalType": "string",
          "name": "_fatherName",
          "type": "string"
        },
        {
          "internalType": "address",
          "name": "_userEthAddress",
          "type": "address"
        },
        {
          "internalType": "string",
          "name": "_mailingAddress",
          "type": "string"
        },
        {
          "internalType": "bool",
          "name": "_isGraduated",
          "type": "bool"
        }
      ],
      "name": "setProfile",
      "outputs": [],
      "stateMutability": "nonpayable",
      "type": "function"
    },
    {
      "inputs": [],
      "name": "getProfile",
      "outputs": [
        {
          "internalType": "uint256",
          "name": "",
          "type": "uint256"
        },
        {
          "internalType": "string",
          "name": "",
          "type": "string"
        },
        {
          "internalType": "string",
          "name": "",
          "type": "string"
        },
        {
          "internalType": "address",
          "name": "",
          "type": "address"
        },
        {
          "internalType": "string",
          "name": "",
          "type": "string"
        },
        {
          "internalType": "bool",
          "name": "",
          "type": "bool"
        }
      ],
      "stateMutability": "view",
      "type": "function",
      "constant": true
    }
  ],
  "bytecode": "0x60806040523480156200001157600080fd5b5060405162000d4138038062000d4183398181016040528101906200003791906200041a565b85600081905550846001908051906020019062000056929190620000f0565b5083600290805190602001906200006f929190620000f0565b5082600360006101000a81548173ffffffffffffffffffffffffffffffffffffffff021916908373ffffffffffffffffffffffffffffffffffffffff1602179055508160049080519060200190620000c9929190620000f0565b5080600560006101000a81548160ff02191690831515021790555050505050505062000577565b828054620000fe9062000542565b90600052602060002090601f0160209004810192826200012257600085556200016e565b82601f106200013d57805160ff19168380011785556200016e565b828001600101855582156200016e579182015b828111156200016d57825182559160200191906001019062000150565b5b5090506200017d919062000181565b5090565b5b808211156200019c57600081600090555060010162000182565b5090565b6000604051905090565b600080fd5b600080fd5b6000819050919050565b620001c981620001b4565b8114620001d557600080fd5b50565b600081519050620001e981620001be565b92915050565b600080fd5b600080fd5b6000601f19601f8301169050919050565b7f4e487b7100000000000000000000000000000000000000000000000000000000600052604160045260246000fd5b6200024482620001f9565b810181811067ffffffffffffffff821117156200026657620002656200020a565b5b80604052505050565b60006200027b620001a0565b905062000289828262000239565b919050565b600067ffffffffffffffff821115620002ac57620002ab6200020a565b5b620002b782620001f9565b9050602081019050919050565b60005b83811015620002e4578082015181840152602081019050620002c7565b83811115620002f4576000848401525b50505050565b6000620003116200030b846200028e565b6200026f565b90508281526020810184848401111562000330576200032f620001f4565b5b6200033d848285620002c4565b509392505050565b600082601f8301126200035d576200035c620001ef565b5b81516200036f848260208601620002fa565b91505092915050565b600073ffffffffffffffffffffffffffffffffffffffff82169050919050565b6000620003a58262000378565b9050919050565b620003b78162000398565b8114620003c357600080fd5b50565b600081519050620003d781620003ac565b92915050565b60008115159050919050565b620003f481620003dd565b81146200040057600080fd5b50565b6000815190506200041481620003e9565b92915050565b60008060008060008060c087890312156200043a5762000439620001aa565b5b60006200044a89828a01620001d8565b965050602087015167ffffffffffffffff8111156200046e576200046d620001af565b5b6200047c89828a0162000345565b955050604087015167ffffffffffffffff811115620004a0576200049f620001af565b5b620004ae89828a0162000345565b9450506060620004c189828a01620003c6565b935050608087015167ffffffffffffffff811115620004e557620004e4620001af565b5b620004f389828a0162000345565b92505060a06200050689828a0162000403565b9150509295509295509295565b7f4e487b7100000000000000000000000000000000000000000000000000000000600052602260045260246000fd5b600060028204905060018216806200055b57607f821691505b60208210810362000571576200057062000513565b5b50919050565b6107ba80620005876000396000f3fe608060405234801561001057600080fd5b50600436106100365760003560e01c806319ebeaab1461003b578063d6afc9b114610057575b600080fd5b610055600480360381019061005091906104f9565b61007a565b005b61005f61011d565b604051610071969594939291906106ae565b60405180910390f35b8860008190555087876001919061009292919061031b565b508585600291906100a492919061031b565b5083600360006101000a81548173ffffffffffffffffffffffffffffffffffffffff021916908373ffffffffffffffffffffffffffffffffffffffff1602179055508282600491906100f792919061031b565b5080600560006101000a81548160ff021916908315150217905550505050505050505050565b6000606080600060606000805460016002600360009054906101000a900473ffffffffffffffffffffffffffffffffffffffff166004600560009054906101000a900460ff1684805461016f90610753565b80601f016020809104026020016040519081016040528092919081815260200182805461019b90610753565b80156101e85780601f106101bd576101008083540402835291602001916101e8565b820191906000526020600020905b8154815290600101906020018083116101cb57829003601f168201915b505050505094508380546101fb90610753565b80601f016020809104026020016040519081016040528092919081815260200182805461022790610753565b80156102745780601f1061024957610100808354040283529160200191610274565b820191906000526020600020905b81548152906001019060200180831161025757829003601f168201915b5050505050935081805461028790610753565b80601f01602080910402602001604051908101604052809291908181526020018280546102b390610753565b80156103005780601f106102d557610100808354040283529160200191610300565b820191906000526020600020905b8154815290600101906020018083116102e357829003601f168201915b50505050509150955095509550955095509550909192939495565b82805461032790610753565b90600052602060002090601f0160209004810192826103495760008555610390565b82601f1061036257803560ff1916838001178555610390565b82800160010185558215610390579182015b8281111561038f578235825591602001919060010190610374565b5b50905061039d91906103a1565b5090565b5b808211156103ba5760008160009055506001016103a2565b5090565b600080fd5b600080fd5b6000819050919050565b6103db816103c8565b81146103e657600080fd5b50565b6000813590506103f8816103d2565b92915050565b600080fd5b600080fd5b600080fd5b60008083601f840112610423576104226103fe565b5b8235905067ffffffffffffffff8111156104405761043f610403565b5b60208301915083600182028301111561045c5761045b610408565b5b9250929050565b600073ffffffffffffffffffffffffffffffffffffffff82169050919050565b600061048e82610463565b9050919050565b61049e81610483565b81146104a957600080fd5b50565b6000813590506104bb81610495565b92915050565b60008115159050919050565b6104d6816104c1565b81146104e157600080fd5b50565b6000813590506104f3816104cd565b92915050565b600080600080600080600080600060c08a8c03121561051b5761051a6103be565b5b60006105298c828d016103e9565b99505060208a013567ffffffffffffffff81111561054a576105496103c3565b5b6105568c828d0161040d565b985098505060408a013567ffffffffffffffff811115610579576105786103c3565b5b6105858c828d0161040d565b965096505060606105988c828d016104ac565b94505060808a013567ffffffffffffffff8111156105b9576105b86103c3565b5b6105c58c828d0161040d565b935093505060a06105d88c828d016104e4565b9150509295985092959850929598565b6105f1816103c8565b82525050565b600081519050919050565b600082825260208201905092915050565b60005b83811015610631578082015181840152602081019050610616565b83811115610640576000848401525b50505050565b6000601f19601f8301169050919050565b6000610662826105f7565b61066c8185610602565b935061067c818560208601610613565b61068581610646565b840191505092915050565b61069981610483565b82525050565b6106a8816104c1565b82525050565b600060c0820190506106c360008301896105e8565b81810360208301526106d58188610657565b905081810360408301526106e98187610657565b90506106f86060830186610690565b818103608083015261070a8185610657565b905061071960a083018461069f565b979650505050505050565b7f4e487b7100000000000000000000000000000000000000000000000000000000600052602260045260246000fd5b6000600282049050600182168061076b57607f821691505b60208210810361077e5761077d610724565b5b5091905056fea2646970667358221220a72c5eeb60e41d3c1cabde2ae6dda3f361dfca60484bb2bf73830d90862cbfce64736f6c634300080d0033",
  "immutableReferences": {},
  "source": "// SPDX-License-Identifier: MIT\n// Tells the Solidity compiler to compile only from v0.8.13 to v0.9.0\npragma solidity ^0.8.13;\n\ncontract StudentAnees {\n\n\tuint age;\n\tstring name;\n\tstring fatherName;\n\taddress userEthAddress;\n\tstring mailingAddress;\n\tbool isGraduated;\n\n\tconstructor(uint _age, string memory _name, string memory _fatherName, address _userEthAddress, string memory _mailingAddress, bool _isGraduated ){\n\t\tage = _age;\n\t\tname = _name;\n\t\tfatherName = _fatherName;\n\t\tuserEthAddress = _userEthAddress;\n\t\tmailingAddress = _mailingAddress;\n\t\tisGraduated = _isGraduated;\n\t}\n\n\tfunction setProfile(uint _age, string calldata _name, string calldata _fatherName, address _userEthAddress, string calldata _mailingAddress, bool _isGraduated) public {\n\t\tage = _age;\n\t\tname = _name;\n\t\tfatherName = _fatherName;\n\t\tuserEthAddress = _userEthAddress;\n\t\tmailingAddress  = _mailingAddress;\n\t\tisGraduated = _isGraduated;\n\t}\n\n\tfunction getProfile() public view returns(uint,string memory, string memory, address, string memory, bool){\n\t\treturn (age, name,fatherName, userEthAddress, mailingAddress, isGraduated);\n\t}\n\n}\n",
  "sourcePath": "/home/brainx/Desktop/Projects/Blockchain/userProfile/contracts/StudentAnees.sol",
  "compiler": {
    "name": "solc",
    "version": "0.8.13+commit.abaa5c0e.Emscripten.clang"
  },
  "schemaVersion": "3.4.16",
  "updatedAt": "2024-08-01T20:54:58.715Z",
  "networkType": "ethereum",
  "devdoc": {
    "kind": "dev",
    "methods": {},
    "version": 1
  },
  "userdoc": {
    "kind": "user",
    "methods": {},
    "version": 1
  }
}