{
  "contractName": "UserProfile",
  "abi": [
    {
      "inputs": [
        {
          "internalType": "uint256",
          "name": "_age",
          "type": "uint256"
        },
        {
          "internalType": "string",
          "name": "_name",
          "type": "string"
        },
        {
          "internalType": "address",
          "name": "_userEthAddress",
          "type": "address"
        },
        {
          "internalType": "string",
          "name": "_mailingAddress",
          "type": "string"
        },
        {
          "internalType": "bool",
          "name": "_is_graduated",
          "type": "bool"
        }
      ],
      "stateMutability": "nonpayable",
      "type": "constructor"
    },
    {
      "inputs": [],
      "name": "getProfile",
      "outputs": [
        {
          "internalType": "uint256",
          "name": "",
          "type": "uint256"
        },
        {
          "internalType": "string",
          "name": "",
          "type": "string"
        },
        {
          "internalType": "address",
          "name": "",
          "type": "address"
        },
        {
          "internalType": "string",
          "name": "",
          "type": "string"
        },
        {
          "internalType": "bool",
          "name": "",
          "type": "bool"
        }
      ],
      "stateMutability": "view",
      "type": "function",
      "constant": true
    }
  ],
  "bytecode": "0x60806040523480156200001157600080fd5b50604051620008fd380380620008fd833981810160405281019062000037919062000400565b84600081905550836001908051906020019062000056929190620000d6565b5082600260006101000a81548173ffffffffffffffffffffffffffffffffffffffff021916908373ffffffffffffffffffffffffffffffffffffffff1602179055508160039080519060200190620000b0929190620000d6565b5080600460006101000a81548160ff02191690831515021790555050505050506200052a565b828054620000e490620004f5565b90600052602060002090601f01602090048101928262000108576000855562000154565b82601f106200012357805160ff191683800117855562000154565b8280016001018555821562000154579182015b828111156200015357825182559160200191906001019062000136565b5b50905062000163919062000167565b5090565b5b808211156200018257600081600090555060010162000168565b5090565b6000604051905090565b600080fd5b600080fd5b6000819050919050565b620001af816200019a565b8114620001bb57600080fd5b50565b600081519050620001cf81620001a4565b92915050565b600080fd5b600080fd5b6000601f19601f8301169050919050565b7f4e487b7100000000000000000000000000000000000000000000000000000000600052604160045260246000fd5b6200022a82620001df565b810181811067ffffffffffffffff821117156200024c576200024b620001f0565b5b80604052505050565b60006200026162000186565b90506200026f82826200021f565b919050565b600067ffffffffffffffff821115620002925762000291620001f0565b5b6200029d82620001df565b9050602081019050919050565b60005b83811015620002ca578082015181840152602081019050620002ad565b83811115620002da576000848401525b50505050565b6000620002f7620002f18462000274565b62000255565b905082815260208101848484011115620003165762000315620001da565b5b62000323848285620002aa565b509392505050565b600082601f830112620003435762000342620001d5565b5b815162000355848260208601620002e0565b91505092915050565b600073ffffffffffffffffffffffffffffffffffffffff82169050919050565b60006200038b826200035e565b9050919050565b6200039d816200037e565b8114620003a957600080fd5b50565b600081519050620003bd8162000392565b92915050565b60008115159050919050565b620003da81620003c3565b8114620003e657600080fd5b50565b600081519050620003fa81620003cf565b92915050565b600080600080600060a086880312156200041f576200041e62000190565b5b60006200042f88828901620001be565b955050602086015167ffffffffffffffff81111562000453576200045262000195565b5b62000461888289016200032b565b94505060406200047488828901620003ac565b935050606086015167ffffffffffffffff81111562000498576200049762000195565b5b620004a6888289016200032b565b9250506080620004b988828901620003e9565b9150509295509295909350565b7f4e487b7100000000000000000000000000000000000000000000000000000000600052602260045260246000fd5b600060028204905060018216806200050e57607f821691505b602082108103620005245762000523620004c6565b5b50919050565b6103c3806200053a6000396000f3fe608060405234801561001057600080fd5b506004361061002b5760003560e01c8063d6afc9b114610030575b600080fd5b610038610052565b6040516100499594939291906102cc565b60405180910390f35b6000606060006060600080546001600260009054906101000a900473ffffffffffffffffffffffffffffffffffffffff166003600460009054906101000a900460ff168380546100a19061035c565b80601f01602080910402602001604051908101604052809291908181526020018280546100cd9061035c565b801561011a5780601f106100ef5761010080835404028352916020019161011a565b820191906000526020600020905b8154815290600101906020018083116100fd57829003601f168201915b5050505050935081805461012d9061035c565b80601f01602080910402602001604051908101604052809291908181526020018280546101599061035c565b80156101a65780601f1061017b576101008083540402835291602001916101a6565b820191906000526020600020905b81548152906001019060200180831161018957829003601f168201915b50505050509150945094509450945094509091929394565b6000819050919050565b6101d1816101be565b82525050565b600081519050919050565b600082825260208201905092915050565b60005b838110156102115780820151818401526020810190506101f6565b83811115610220576000848401525b50505050565b6000601f19601f8301169050919050565b6000610242826101d7565b61024c81856101e2565b935061025c8185602086016101f3565b61026581610226565b840191505092915050565b600073ffffffffffffffffffffffffffffffffffffffff82169050919050565b600061029b82610270565b9050919050565b6102ab81610290565b82525050565b60008115159050919050565b6102c6816102b1565b82525050565b600060a0820190506102e160008301886101c8565b81810360208301526102f38187610237565b905061030260408301866102a2565b81810360608301526103148185610237565b905061032360808301846102bd565b9695505050505050565b7f4e487b7100000000000000000000000000000000000000000000000000000000600052602260045260246000fd5b6000600282049050600182168061037457607f821691505b6020821081036103875761038661032d565b5b5091905056fea2646970667358221220f7a6505ff95774c19daaf414cec7c1ef4cfd05252fd9ea37d816e7e029c165d864736f6c634300080d0033",
  "immutableReferences": {},
  "source": "// SPDX-License-Identifier: MIT\n// Tells the Solidity compiler to compile only from v0.8.13 to v0.9.0\npragma solidity ^0.8.13;\n\ncontract UserProfile {\n\n\tuint age;\n\tstring name;\n\taddress userEthAddress;\n\tstring mailingAddress;\n\tbool is_graduated;\n\n\tconstructor(uint _age, string memory _name, address _userEthAddress, string memory _mailingAddress, bool _is_graduated ){\n\t\tage = _age;\n\t\tname = _name;\n\t\tuserEthAddress = _userEthAddress;\n\t\tmailingAddress = _mailingAddress;\n\t\tis_graduated = _is_graduated;\n\t}\n\n\tfunction getProfile() public view returns(uint,string memory,address, string memory, bool){\n\t\treturn (age, name, userEthAddress, mailingAddress, is_graduated);\n\t}\n\n}\n",
  "sourcePath": "/home/brainx/Desktop/Projects/Blockchain/userProfile/contracts/UserProfle.sol",
  "compiler": {
    "name": "solc",
    "version": "0.8.13+commit.abaa5c0e.Emscripten.clang"
  },
  "schemaVersion": "3.4.16",
  "updatedAt": "2024-08-01T20:42:07.569Z",
  "networkType": "ethereum",
  "devdoc": {
    "kind": "dev",
    "methods": {},
    "version": 1
  },
  "userdoc": {
    "kind": "user",
    "methods": {},
    "version": 1
  }
}